:020000040800F2
:1000000000280020E10A0008850A00088B0A000881
:10001000910A0008970A00089D0A000800000000E5
:10002000000000000000000000000000A30A00081B
:10003000AF0A000800000000BB0A0008C70A000859
:10004000290B0008290B0008290B0008290B0008C0
:10005000290B0008290B0008290B0008290B0008B0
:10006000290B0008290B0008290B0008290B0008A0
:10007000290B0008290B0008290B0008290B000890
:10008000290B0008290B0008290B0008290B000880
:10009000290B0008290B0008290B0008290B000870
:1000A000290B0008290B0008290B0008290B000860
:1000B000290B0008290B000800000000290B00088C
:1000C000290B00080000000000000000290B0008B8
:1000D00000000000290B0008290B000800000000A8
:1000E000290B0008290B0008290B0008000000005C
:1000F0000000000000000000000000000000000000
:0C01000000000000000000005FF808F1A3
:10010C0010B5054C237833B9044B13B10448AFF345
:10011C0000800123237010BD0C00002000000000A3
:10012C003419000808B5034B1BB103490348AFF35E
:10013C00008008BD000000001000002034190008E9
:10014C0080B584B000AF00F0EBFC00F0BFF800F01D
:10015C00F9F80023FB600023BB6000237B600223C3
:10016C003B60FB68002B4CD17B68002B16D1002226
:10017C004FF48061534800F0B7FF01224FF4007137
:10018C00504800F0B1FF01224FF480714D4800F04F
:10019C00ABFF02237B600523FB6032E07B68012B05
:1001AC0016D101224FF48061464800F09DFF0022D9
:1001BC004FF40071434800F097FF01224FF4807117
:1001CC00404800F091FF00237B600223FB6018E0A5
:1001DC007B68022B15D101224FF48061394800F065
:1001EC0083FF01224FF40071364800F07DFF00229E
:1001FC004FF48071334800F077FF01237B600323B9
:10020C00FB60BB68002B4CD13B68002B16D1002245
:10021C004FF480712C4800F067FF01224FF40071FD
:10022C00294800F061FF01224FF48061264800F05C
:10023C005BFF02233B600523BB6032E03B68012B74
:10024C0016D101224FF480711F4800F04DFF00229F
:10025C004FF400711C4800F047FF01224FF48061FD
:10026C00194800F041FF00233B600223BB6018E0FB
:10027C003B68022B15D101224FF48071124800F01B
:10028C0033FF01224FF400710F4800F02DFF0022C4
:10029C004FF480610C4800F027FF01233B600323DF
:1002AC00BB60FB685A1EFA60184600F0A1F8BB68E8
:1002BC005A1EBA60184600F021FA4FF47A7000F01A
:1002CC0091FC4EE700080140000C014080B590B055
:1002DC0000AF07F1180328220021184601F01CFB7F
:1002EC003B1D00221A605A609A60DA601A61022380
:1002FC00BB610123BB621023FB6200237B6307F10C
:10030C001803184600F008FF0346002B01D000F03C
:10031C007BFB0F237B600023BB600023FB6000236F
:10032C003B6100237B613B1D0021184601F074F9F1
:10033C000346002B01D000F067FB00BF4037BD46E1
:10034C0080BD000080B586B000AF07F10803002225
:10035C001A605A609A60DA60224B9B69214A43F01A
:10036C00040393611F4B9B6903F004037B607B6860
:10037C001C4B9B691B4A43F008039361194B9B6907
:10038C0003F008033B603B68002240F2FE71164804
:10039C0000F0AAFE002240F2FE71144800F0A4FE08
:1003AC0040F2FE73BB600123FB6000233B61022320
:1003BC007B6107F1080319460B4800F01BFD40F266
:1003CC00FE73BB600123FB6000233B6102237B6156
:1003DC0007F108031946054800F00CFD00BF18375B
:1003EC00BD4680BD0010024000080140000C0140D9
:1003FC0080B582B000AF78607B68002B22D10022E0
:10040C000221BD4800F070FE00220421BA4800F021
:10041C006BFE00220821B84800F066FE0022102175
:10042C00B54800F061FE00222021B34800F05CFECC
:10043C0000224021B04800F057FE01228021AE4836
:10044C0000F052FE7B68012B22D101220221AA4826
:10045C0000F04AFE00220421A74800F045FE0022CD
:10046C000821A54800F040FE01221021A24800F00E
:10047C003BFE01222021A04800F036FE0122402143
:10048C009D4800F031FE012280219B4800F02CFE9B
:10049C007B68022B22D100220221974800F024FE17
:1004AC0000220421944800F01FFE012208219248EA
:1004BC0000F01AFE002210218F4800F015FE0022D9
:1004CC0020218D4800F010FE012240218A4800F0C6
:1004DC000BFE00228021884800F006FE7B68032B6F
:1004EC0022D100220221844800F0FEFD00220421CA
:1004FC00814800F0F9FD002208217F4800F0F4FD4E
:10050C00002210217C4800F0EFFD012220217A48C6
:10051C0000F0EAFD01224021774800F0E5FD0022C1
:10052C008021754800F0E0FD7B68042B22D101226C
:10053C000221714800F0D8FD002204216E4800F021
:10054C00D3FD002208216C4800F0CEFD01221021C1
:10055C00694800F0C9FD01222021674800F0C4FD64
:10056C0000224021644800F0BFFD00228021624837
:10057C0000F0BAFD7B68052B22D1002202215E48D7
:10058C0000F0B2FD012204215B4800F0ADFD002219
:10059C000821594800F0A8FD00221021564800F00F
:1005AC00A3FD01222021544800F09EFD0022402191
:1005BC00514800F099FD002280214F4800F094FD35
:1005CC007B68062B22D1002202214B4800F08CFDC7
:1005DC0001220421484800F087FD002208214648EA
:1005EC0000F082FD00221021434800F07DFD002226
:1005FC002021414800F078FD002240213E4800F0C7
:10060C0073FD002280213C4800F06EFD7B68072BB7
:10061C0022D100220221384800F066FD002204217C
:10062C00354800F061FD00220821334800F05CFDE4
:10063C0001221021304800F057FD012220212E48C4
:10064C0000F052FD012240212B4800F04DFD01220B
:10065C008021294800F048FD7B68082B22D100221C
:10066C000221254800F040FD00220421224800F020
:10067C003BFD00220821204800F036FD002210210D
:10068C001D4800F031FD002220211B4800F02CFDFC
:10069C0000224021184800F027FD00228021164836
:1006AC0000F022FD7B68092B22D100220221124886
:1006BC0000F01AFD002204210F4800F015FD002265
:1006CC0008210D4800F010FD002210210A4800F00E
:1006DC000BFD01222021084800F006FD00224021DC
:1006EC00054800F001FD00228021034800F0FCFCCD
:1006FC0000BF0837BD4680BD0008014080B582B000
:10070C0000AF78607B68002B22D100220221BD480B
:10071C0000F0EAFC00220421BA4800F0E5FC0022BB
:10072C000821B84800F0E0FC00221021B54800F088
:10073C00DBFC00222021B34800F0D6FC0022402133
:10074C00B04800F0D1FC01228021AE4800F0CCFC76
:10075C007B68012B22D101220221AA4800F0C4FCA3
:10076C0000220421A74800F0BFFC00220821A54864
:10077C0000F0BAFC01221021A24800F0B5FC0122C5
:10078C002021A04800F0B0FC012240219D4800F03F
:10079C00ABFC012280219B4800F0A6FC7B68022B5D
:1007AC0022D100220221974800F09EFC0022042155
:1007BC00944800F099FC01220821924800F094FC26
:1007CC00002210218F4800F08FFC002220218D4840
:1007DC0000F08AFC012240218A4800F085FC0022AE
:1007EC008021884800F080FC7B68032B22D10022FA
:1007FC000221844800F078FC00220421814800F09A
:10080C0073FC002208217F4800F06EFC00221021AE
:10081C007C4800F069FC012220217A4800F064FC3D
:10082C0001224021774800F05FFC002280217548AE
:10083C0000F05AFC7B68042B22D101220221714862
:10084C0000F052FC002204216E4800F04DFC002206
:10085C0008216C4800F048FC01221021694800F086
:10086C0043FC01222021674800F03EFC002240217D
:10087C00644800F039FC00228021624800F034FC0E
:10088C007B68052B22D1002202215E4800F02CFC53
:10089C00012204215B4800F027FC00220821594862
:1008AC0000F022FC00221021564800F01DFC012211
:1008BC002021544800F018FC00224021514800F03F
:1008CC0013FC002280214F4800F00EFC7B68062BA5
:1008DC0022D1002202214B4800F006FC0122042107
:1008EC00484800F001FC00220821464800F0FCFBBF
:1008FC0000221021434800F0F7FB00222021414840
:10090C0000F0F2FB002240213E4800F0EDFB0022FB
:10091C0080213C4800F0E8FB7B68072B22D10022A9
:10092C000221384800F0E0FB00220421354800F099
:10093C00DBFB00220821334800F0D6FB01221021FA
:10094C00304800F0D1FB012220212E4800F0CCFBD6
:10095C00012240212B4800F0C7FB012280212948AD
:10096C0000F0C2FB7B68082B22D100220221254813
:10097C0000F0BAFB00220421224800F0B5FB002253
:10098C000821204800F0B0FB002210211D4800F087
:10099C00ABFB002220211B4800F0A6FB00224021CB
:1009AC00184800F0A1FB00228021164800F09CFBA7
:1009BC007B68092B22D100220221124800F094FB03
:1009CC00002204210F4800F08FFB002208210D4863
:1009DC0000F08AFB002210210A4800F085FB01225E
:1009EC002021084800F080FB00224021054800F03F
:1009FC007BFB00228021034800F076FB00BF083708
:100A0C00BD4680BD000C014080B400AF72B600BF83
:100A1C00FEE7000080B485B000AF154B9B69144A0B
:100A2C0043F001039361124B9B6903F00103BB601C
:100A3C00BB680F4BDB690E4A43F08053D3610C4B00
:100A4C00DB6903F080537B607B680A4B5B68FB605F
:100A5C00FB6823F0E063FB60FB6843F08063FB60A2
:100A6C00044AFB68536000BF1437BD4680BC704716
:100A7C00001002400000014080B400AFFEE780B4DB
:100A8C0000AFFEE780B400AFFEE780B400AFFEE736
:100A9C0080B400AFFEE780B400AF00BFBD4680BCA1
:100AAC00704780B400AF00BFBD4680BC704780B4B7
:100ABC0000AF00BFBD4680BC704780B500AF00F0F2
:100ACC0075F800BF80BD80B400AF00BFBD4680BCD0
:100ADC0070470000FFF7F7FF0B480C490C4A002346
:100AEC0002E0D458C4500433C4188C42F9D3094AD8
:100AFC00094C002301E013600432A242FBD300F046
:100B0C00E7FEFFF71DFB7047000000200C000020E3
:100B1C00781900080C0000202C000020FEE70000D3
:100B2C0080B500AF084B1B68074A43F010031360F5
:100B3C00032000F02BF90F2000F008F8FFF76AFFF4
:100B4C000023184680BD00BF0020024080B582B053
:100B5C0000AF7860124B1A68124B1B7819464FF491
:100B6C007A73B3FBF1F3B2FBF3F3184600F035F9EB
:100B7C000346002B01D001230EE07B680F2B0AD813
:100B8C00002279684FF0FF3000F00BF9064A7B68C1
:100B9C001360002300E0012318460837BD4680BDD2
:100BAC0000000020080000200400002080B400AFEA
:100BBC00054B1B781A46054B1B681344034A1360FC
:100BCC0000BFBD4680BC70470800002028000020F4
:100BDC0080B400AF024B1B681846BD4680BC704702
:100BEC002800002080B584B000AF7860FFF7F0FFDC
:100BFC00B8607B68FB60FB68B3F1FF3F05D00A4B24
:100C0C001B781A46FB681344FB6000BFFFF7E0FF3C
:100C1C000246BB68D31AFA689A42F7D800BF00BFE5
:100C2C001037BD4680BD00BF0800002080B485B0E1
:100C3C0000AF78607B6803F00703FB600C4BDB684C
:100C4C00BB60BA684FF6FF031340BB60FB681A0227
:100C5C00BB68134343F0BF6343F40033BB60044AE7
:100C6C00BB68D36000BF1437BD4680BC704700BF63
:100C7C0000ED00E080B400AF044BDB681B0A03F00E
:100C8C0007031846BD4680BC704700BF00ED00E06E
:100C9C0080B483B000AF03463960FB7197F907301D
:100CAC00002B0ADB3B68DAB20C4997F907301201CA
:100CBC00D2B20B4483F800230AE03B68DAB208494D
:100CCC00FB7903F00F03043B1201D2B20B441A76EA
:100CDC0000BF0C37BD4680BC704700BF00E100E090
:100CEC0000ED00E080B489B000AFF860B9607A60C4
:100CFC00FB6803F00703FB61FB69C3F10703042BDB
:100D0C0028BF0423BB61FB690433062B02D9FB69A2
:100D1C00033B00E000237B614FF0FF32BB6902FA1A
:100D2C0003F3DA43BB681A407B699A404FF0FF31FA
:100D3C007B6901FA03F3D9437B680B4013431846D4
:100D4C002437BD4680BC704780B582B000AF786058
:100D5C007B68013BB3F1807F01D301230FE00A4A8A
:100D6C007B68013B53600F214FF0FF30FFF790FF82
:100D7C00054B00229A60044B07221A600023184688
:100D8C000837BD4680BD00BF10E000E080B582B0E2
:100D9C0000AF78607868FFF749FF00BF0837BD46A1
:100DAC0080BD80B586B000AF0346B9607A60FB7336
:100DBC0000237B61FFF75EFF78617A68B968786918
:100DCC00FFF790FF024697F90F3011461846FFF7D0
:100DDC005FFF00BF1837BD4680BD80B582B000AF45
:100DEC0078607868FFF7B0FF034618460837BD46B1
:100DFC0080BD000080B48BB000AF786039600023F8
:100E0C007B6200233B6248E101227B6A02FA03F316
:100E1C00FB613B681B68FA691340BB61BA69FB69EB
:100E2C009A4240F037813B685B68A34A93425ED09C
:100E3C00A14A934275D8A14A934258D09F4A9342F3
:100E4C006FD89F4A934252D09D4A934269D89D4A8B
:100E5C0093424CD09B4A934263D89B4A934246D0D0
:100E6C00994A93425DD8122B2AD8122B59D801A239
:100E7C0052F823F0FB0E0008D50E0008E70E000810
:100E8C00290F00082F0F00082F0F00082F0F000844
:100E9C002F0F00082F0F00082F0F00082F0F00082E
:100EAC002F0F00082F0F00082F0F00082F0F00081E
:100EBC002F0F00082F0F0008DD0E0008F10E0008A0
:100ECC00824A934213D02CE03B68DB683B6229E0FA
:100EDC003B68DB6804333B6224E03B68DB68083327
:100EEC003B621FE03B68DB680C333B621AE03B68FB
:100EFC009B68002B02D104233B6213E03B689B6888
:100F0C00012B05D108233B627B68FA691A6109E061
:100F1C0008233B627B68FA695A6103E000233B6259
:100F2C0000E000BFBB69FF2B01D87B6801E07B6848
:100F3C0004337B61BB69FF2B02D87B6A9B0002E008
:100F4C007B6A083B9B003B617B691A680F213B69FC
:100F5C0001FA03F3DB431A40396A3B6901FA03F3E4
:100F6C001A437B691A603B685B6803F08053002B63
:100F7C0000F09080564B9B69554A43F001039361F6
:100F8C00534B9B6903F00103BB60BB68514A7B6AFE
:100F9C009B08023352F82330FB607B6A03F0030397
:100FAC009B000F2202FA03F3DB43FA681340FB6049
:100FBC007B68494A93420DD07B68484A934207D0DC
:100FCC007B68474A934201D1022304E0032302E0E9
:100FDC00012300E000237A6A02F00302920093409E
:100FEC00FA681343FB603B497B6A9B080233FA683F
:100FFC0041F823203B685B6803F48013002B06D078
:10100C00384B9A683749BB6913438B6006E0354B04
:10101C009A68BB69DB43334913408B603B685B6860
:10102C0003F40013002B06D02E4BDA682D49BB6954
:10103C001343CB6006E02B4BDA68BB69DB432949D1
:10104C001340CB603B685B6803F40033002B06D085
:10105C00244B5A682349BB6913434B6006E0214B70
:10106C005A68BB69DB431F4913404B603B685B68A4
:10107C0003F48033002B06D01A4B1A681949BB694C
:10108C0013430B6006E0174B1A68BB69DB43154929
:10109C0013400B607B6A01337B623B681A687B6A86
:1010AC0022FA03F3002B7FF4AFAE00BF00BF2C3746
:1010BC00BD4680BC704700BF0000321000003110EC
:1010CC00000022100000211000001210000011106E
:1010DC00001002400000014000080140000C0140DB
:1010EC00001001400004014080B483B000AF786070
:1010FC000B467B8013467B707B78002B03D07A8861
:10110C007B681A6103E07B881A047B681A6100BF54
:10111C000C37BD4680BC704780B586B000AF786098
:10112C007B68002B01D101236CE27B681B6803F008
:10113C000103002B00F08780924B5B6803F00C03DB
:10114C00042B0CD08F4B5B6803F00C03082B12D1D3
:10115C008C4B5B6803F48033B3F5803F0BD1894B28
:10116C001B6803F40033002B6CD07B685B68002B8E
:10117C0068D1012346E27B685B68B3F5803F06D1FA
:10118C00804B1B687F4A43F4803313602EE07B68EE
:10119C005B68002B0CD17B4B1B687A4A23F48033A1
:1011AC001360784B1B68774A23F4802313601DE08F
:1011BC007B685B68B3F5A02F0CD1724B1B68714A2E
:1011CC0043F4802313606F4B1B686E4A43F48033E7
:1011DC0013600BE06B4B1B686A4A23F4803313607B
:1011EC00684B1B68674A23F4802313607B685B6839
:1011FC00002B13D0FFF7ECFC386108E0FFF7E8FC9C
:10120C0002463B69D31A642B01D90323FAE15D4BE7
:10121C001B6803F40033002BF0D014E0FFF7D8FC6C
:10122C00386108E0FFF7D4FC02463B69D31A642B03
:10123C0001D90323E6E1534B1B6803F40033002B65
:10124C00F0D100E000BF7B681B6803F00203002BA9
:10125C0063D04C4B5B6803F00C03002B0BD0494B59
:10126C005B6803F00C03082B1CD1464B5B6803F442
:10127C008033002B16D1434B1B6803F00203002B69
:10128C0005D07B681B69012B01D00123BAE13D4BD2
:10129C001B6823F0F8027B685B69DB003949134358
:1012AC000B603AE07B681B69002B20D0364B012287
:1012BC001A60FFF78DFC386108E0FFF789FC0246E5
:1012CC003B69D31A022B01D903239BE12D4B1B68DD
:1012DC0003F00203002BF0D02A4B1B6823F0F8021A
:1012EC007B685B69DB00274913430B6015E0264BD9
:1012FC0000221A60FFF76CFC386108E0FFF768FC0D
:10130C0002463B69D31A022B01D903237AE11D4B08
:10131C001B6803F00203002BF0D17B681B6803F001
:10132C000803002B3AD07B689B69002B19D0174B14
:10133C0001221A60FFF74CFC386108E0FFF748FC0B
:10134C0002463B69D31A022B01D903235AE10D4BF8
:10135C005B6A03F00203002BF0D0012000F09AFA34
:10136C001CE00A4B00221A60FFF732FC38610FE0D8
:10137C00FFF72EFC02463B69D31A022B08D9032334
:10138C0040E100BF00100240000042428004424293
:10139C009E4B5B6A03F00203002BE9D17B681B6850
:1013AC0003F00403002B00F0A6800023FB75974B81
:1013BC00DB6903F08053002B0DD1944BDB69934A0E
:1013CC0043F08053D361914BDB6903F08053BB60D6
:1013DC00BB680123FB758E4B1B6803F48073002BD9
:1013EC0018D18B4B1B688A4A43F480731360FFF748
:1013FC00EFFB386108E0FFF7EBFB02463B69D31AC1
:10140C00642B01D90323FDE0814B1B6803F480732B
:10141C00002BF0D07B68DB68012B06D17B4B1B6A61
:10142C007A4A43F0010313622DE07B68DB68002BE2
:10143C000CD1764B1B6A754A23F001031362734B74
:10144C001B6A724A23F0040313621CE07B68DB689E
:10145C00052B0CD16D4B1B6A6C4A43F004031362D1
:10146C006A4B1B6A694A43F0010313620BE0674B3A
:10147C001B6A664A23F001031362644B1B6A634ABE
:10148C0023F0040313627B68DB68002B15D0FFF795
:10149C009FFB38610AE0FFF79BFB02463B69D31ABE
:1014AC0041F28832934201D90323ABE0574B1B6ABC
:1014BC0003F00203002BEED014E0FFF789FB386138
:1014CC000AE0FFF785FB02463B69D31A41F28832EA
:1014DC00934201D9032395E04C4B1B6A03F00203A2
:1014EC00002BEED1FB7D012B05D1484BDB69474A24
:1014FC0023F08053D3617B68DB69002B00F0818083
:10150C00424B5B6803F00C03082B61D07B68DB69F2
:10151C00022B46D13F4B00221A60FFF759FB386172
:10152C0008E0FFF755FB02463B69D31A022B01D9A1
:10153C00032367E0354B1B6803F00073002BF0D1DD
:10154C007B681B6AB3F5803F08D1304B5B6823F492
:10155C0000327B689B682D4913434B602B4B5B68B7
:10156C0023F474127B68196A7B685B6A0B43274906
:10157C0013434B60274B01221A60FFF729FB38619C
:10158C0008E0FFF725FB02463B69D31A022B01D971
:10159C00032337E01D4B1B6803F00073002BF0D0C6
:1015AC002FE01C4B00221A60FFF712FB386108E099
:1015BC00FFF70EFB02463B69D31A022B01D903231A
:1015CC0020E0124B1B6803F00073002BF0D118E0E5
:1015DC007B68DB69012B01D1012313E00B4B5B68AA
:1015EC00FB60FB6803F480327B681B6A9A4206D16D
:1015FC00FB6803F470127B685B6A9A4201D001238A
:10160C0000E0002318461837BD4680BD001002408C
:10161C00007000406000424280B584B000AF78603A
:10162C0039607B68002B01D10123D0E06A4B1B6829
:10163C0003F007033A689A4210D9674B1B6823F0F2
:10164C00070265493B6813430B60634B1B6803F04F
:10165C0007033A689A4201D00123B8E07B681B6803
:10166C0003F00203002B20D07B681B6803F00403FB
:10167C00002B05D0594B5B68584A43F4E063536028
:10168C007B681B6803F00803002B05D0534B5B6889
:10169C00524A43F460535360504B5B6823F0F002A2
:1016AC007B689B684D4913434B607B681B6803F058
:1016BC000103002B40D07B685B68012B07D1474BA3
:1016CC001B6803F40033002B15D101237FE07B68EA
:1016DC005B68022B07D1414B1B6803F00073002B96
:1016EC0009D1012373E03D4B1B6803F00203002B6F
:1016FC0001D101236BE0394B5B6823F003027B685B
:10170C005B68364913434B60FFF762FAF8600AE0F6
:10171C00FFF75EFA0246FB68D31A41F28832934215
:10172C0001D9032353E02D4B5B6803F00C027B685B
:10173C005B689B009A42EBD1274B1B6803F00703B5
:10174C003A689A4210D2244B1B6823F007022249B4
:10175C003B6813430B60204B1B6803F007033A688C
:10176C009A4201D0012332E07B681B6803F004032A
:10177C00002B08D0194B5B6823F4E0627B68DB68B4
:10178C00164913434B607B681B6803F00803002B5E
:10179C0009D0124B5B6823F460527B681B69DB0039
:1017AC000E4913434B6000F021F802460B4B5B686B
:1017BC001B0903F00F030A49CB5C22FA03F3094A15
:1017CC001360094B1B681846FFF7C0F90023184635
:1017DC001037BD4680BD00BF002002400010024003
:1017EC004C190008000000200400002080B487B0D1
:1017FC0000AF0023FB600023BB6000237B61002350
:10180C007B6000233B611E4B5B68FB60FB6803F055
:10181C000C03042B02D0082B03D027E0194B3B619F
:10182C0027E0FB689B0C03F00F03174AD35C7B602B
:10183C00FB6803F48033002B10D0114B5B685B0CFE
:10184C0003F00103114AD35CBB607B680D4A02FBB9
:10185C0003F2BB68B2FBF3F37B6104E07B680C4AD8
:10186C0002FB03F37B617B693B6102E0054B3B614F
:10187C0000BF3B6918461C37BD4680BC704700BF93
:10188C000010024000127A005C1900086C19000864
:10189C0000093D0080B485B000AF78600A4B1B682E
:1018AC000A4AA2FB03235B0A7A6802FB03F3FB6080
:1018BC0000BFFB685A1EFA60002BF9D100BF00BFB5
:1018CC001437BD4680BC704700000020D34D621019
:1018DC0070B500260C4D0D4C641BA410A64209D10A
:1018EC0000F022F800260A4D0A4C641BA410A642F4
:1018FC0005D170BD55F8043B98470136EEE755F815
:10190C00043B98470136F2E770190008701900087B
:10191C00701900087419000803460244934200D160
:10192C00704703F8011BF9E7F8B500BFF8BC08BC19
:10193C009E467047F8B500BFF8BC08BC9E46704781
:10194C000000000000000000010203040607080963
:10195C0002030405060708090A0B0C0D0E0F1010E4
:04196C000102000074
:041970003101000839
:041974000D01000859
:0C19780000127A001000000001000000C6
:0400000508000AE104
:00000001FF
